{
  "contractName": "Fruitshop",
  "abi": [
    {
      "inputs": [],
      "payable": false,
      "stateMutability": "nonpayable",
      "type": "constructor"
    },
    {
      "constant": false,
      "inputs": [],
      "name": "buyApple",
      "outputs": [],
      "payable": true,
      "stateMutability": "payable",
      "type": "function"
    },
    {
      "constant": true,
      "inputs": [],
      "name": "getMyApple",
      "outputs": [
        {
          "internalType": "uint256",
          "name": "",
          "type": "uint256"
        }
      ],
      "payable": false,
      "stateMutability": "view",
      "type": "function"
    },
    {
      "constant": false,
      "inputs": [
        {
          "internalType": "uint256",
          "name": "_applePrice",
          "type": "uint256"
        }
      ],
      "name": "sellMyApple",
      "outputs": [],
      "payable": true,
      "stateMutability": "payable",
      "type": "function"
    }
  ],
  "bytecode": "0x608060405234801561001057600080fd5b5061023b806100206000396000f3fe6080604052600436106100345760003560e01c80630bd5849314610039578063284131c714610067578063aacddd7c14610071575b600080fd5b6100656004803603602081101561004f57600080fd5b810190808035906020019092919050505061009c565b005b61006f610170565b005b34801561007d57600080fd5b506100866101c0565b6040518082815260200191505060405180910390f35b6000816000803373ffffffffffffffffffffffffffffffffffffffff1673ffffffffffffffffffffffffffffffffffffffff1681526020019081526020016000205402905060008060003373ffffffffffffffffffffffffffffffffffffffff1673ffffffffffffffffffffffffffffffffffffffff168152602001908152602001600020819055503373ffffffffffffffffffffffffffffffffffffffff166108fc829081150290604051600060405180830381858888f1935050505015801561016b573d6000803e3d6000fd5b505050565b6000803373ffffffffffffffffffffffffffffffffffffffff1673ffffffffffffffffffffffffffffffffffffffff16815260200190815260200160002060008154809291906001019190505550565b60008060003373ffffffffffffffffffffffffffffffffffffffff1673ffffffffffffffffffffffffffffffffffffffff1681526020019081526020016000205490509056fea265627a7a7231582075a96fbaee665d777f05542f091effc9d029f826204c5d5f8affd208684b907264736f6c63430005100032",
  "source": "// SPDX-License-Identifier: MIT\npragma solidity >=0.4.22 <0.9.0;\n\ncontract Fruitshop {\n  mapping(address => uint) myApple;\n  constructor() public {\n  }\n\n  function buyApple() payable external {\n    myApple[msg.sender]++;\n  }\n\n  function getMyApple() view external returns (uint) {\n    return myApple[msg.sender];\n  }\n\n  function sellMyApple(uint _applePrice) payable external {\n    uint refund = (myApple[msg.sender] * _applePrice);\n    myApple[msg.sender] = 0 ;\n    msg.sender.transfer(refund);\n  }\n}\n",
  "sourcePath": "C:\\Users\\pc-007\\Documents\\workspace\\ethereum\\Dapp\\chapter03\\contracts\\Fruitshop.sol",
  "compiler": {
    "name": "solc",
    "version": "0.5.16+commit.9c3226ce.Emscripten.clang"
  },
  "schemaVersion": "3.4.3",
  "updatedAt": "2021-10-12T11:16:16.836Z",
  "devdoc": {
    "methods": {}
  },
  "userdoc": {
    "methods": {}
  }
}