{
  "contractName": "Fruitshop",
  "abi": [
    {
      "inputs": [],
      "payable": false,
      "stateMutability": "nonpayable",
      "type": "constructor"
    },
    {
      "constant": false,
      "inputs": [],
      "name": "buyApple",
      "outputs": [],
      "payable": true,
      "stateMutability": "payable",
      "type": "function"
    },
    {
      "constant": true,
      "inputs": [],
      "name": "getMyApple",
      "outputs": [
        {
          "internalType": "uint256",
          "name": "",
          "type": "uint256"
        }
      ],
      "payable": false,
      "stateMutability": "view",
      "type": "function"
    },
    {
      "constant": false,
      "inputs": [
        {
          "internalType": "uint256",
          "name": "_applePrice",
          "type": "uint256"
        }
      ],
      "name": "sellApple",
      "outputs": [],
      "payable": true,
      "stateMutability": "payable",
      "type": "function"
    }
  ],
  "bytecode": "0x608060405234801561001057600080fd5b5061023b806100206000396000f3fe6080604052600436106100345760003560e01c8063284131c714610039578063aacddd7c14610043578063db54b74c1461006e575b600080fd5b61004161009c565b005b34801561004f57600080fd5b506100586100ec565b6040518082815260200191505060405180910390f35b61009a6004803603602081101561008457600080fd5b8101908080359060200190929190505050610132565b005b6000803373ffffffffffffffffffffffffffffffffffffffff1673ffffffffffffffffffffffffffffffffffffffff16815260200190815260200160002060008154809291906001019190505550565b60008060003373ffffffffffffffffffffffffffffffffffffffff1673ffffffffffffffffffffffffffffffffffffffff16815260200190815260200160002054905090565b6000816000803373ffffffffffffffffffffffffffffffffffffffff1673ffffffffffffffffffffffffffffffffffffffff1681526020019081526020016000205402905060008060003373ffffffffffffffffffffffffffffffffffffffff1673ffffffffffffffffffffffffffffffffffffffff168152602001908152602001600020819055503373ffffffffffffffffffffffffffffffffffffffff166108fc829081150290604051600060405180830381858888f19350505050158015610201573d6000803e3d6000fd5b50505056fea265627a7a72315820dee13f27dd4bbd8b8d8e6980ac5ced756ccdb549363641ebea83b88f8122c6fd64736f6c63430005100032",
  "source": "// SPDX-License-Identifier: MIT\npragma solidity >=0.4.22 <0.9.0;\n\n/*\n  1. 보낸 사람의 계정(주소)에서 사과를 총몇개 가지고있는가,\n  2. 사과를 구매했을시, 해당 계정(주소)에 사과 추가해줍니다.\n  3. 사과를 판매시 내가 가지고있는 사과*사과구매가격 만큼 토큰을 반환해주고,\n     사과를 0개로 바꿔줍시다.\n  4. 내사과를 반환해주는 함수를 만들기. \n */\ncontract Fruitshop {\n  mapping(address=>uint) myApple;\n  constructor() public {\n  }\n\n  function buyApple() payable public {\n    //msg.sender\n    myApple[msg.sender]++;\n  }\n\n  function getMyApple() public view returns(uint){\n    return myApple[msg.sender];\n  }\n\n  function sellApple(uint _applePrice) payable public {\n    uint totalPrice = (myApple[msg.sender] * _applePrice);\n    myApple[msg.sender] = 0;\n    msg.sender.transfer(totalPrice);\n  }\n}\n",
  "sourcePath": "C:\\Users\\pc-007\\Documents\\ether\\211014\\contracts\\Fruitshop.sol",
  "compiler": {
    "name": "solc",
    "version": "0.5.16+commit.9c3226ce.Emscripten.clang"
  },
  "schemaVersion": "3.4.3",
  "updatedAt": "2021-10-14T05:22:35.644Z",
  "networkType": "ethereum",
  "devdoc": {
    "methods": {}
  },
  "userdoc": {
    "methods": {}
  }
}